{
  "contractName": "SimpleStorage",
  "abi": [
    {
      "constant": true,
      "inputs": [],
      "name": "num",
      "outputs": [
        {
          "name": "",
          "type": "uint256"
        }
      ],
      "payable": false,
      "stateMutability": "view",
      "type": "function"
    },
    {
      "constant": false,
      "inputs": [
        {
          "name": "_num",
          "type": "uint256"
        }
      ],
      "name": "setter",
      "outputs": [],
      "payable": false,
      "stateMutability": "nonpayable",
      "type": "function"
    },
    {
      "constant": true,
      "inputs": [],
      "name": "getter",
      "outputs": [
        {
          "name": "",
          "type": "uint256"
        }
      ],
      "payable": false,
      "stateMutability": "view",
      "type": "function"
    }
  ],
  "bytecode": "0x6080604052600a60005534801561001557600080fd5b5061011e806100256000396000f3fe608060405260043610604d576000357c0100000000000000000000000000000000000000000000000000000000900480634e70b1dc146052578063993a04b714607a578063d423740b1460a2575b600080fd5b348015605d57600080fd5b50606460d9565b6040518082815260200191505060405180910390f35b348015608557600080fd5b50608c60df565b6040518082815260200191505060405180910390f35b34801560ad57600080fd5b5060d76004803603602081101560c257600080fd5b810190808035906020019092919050505060e8565b005b60005481565b60008054905090565b806000819055505056fea165627a7a72305820a78f40d2bc6ffb950b67eb929bc4989558e60726f9d029dbcdf14370db68687c0029",
  "source": "//SPDX-License-Identifier: MIT\r\npragma solidity >=0.5.0 <0.9.0;\r\n\r\ncontract SimpleStorage {\r\n    uint public num = 10;\r\n\r\n    function setter(uint _num) public {\r\n        num = _num;\r\n    }\r\n\r\n    function getter() public view returns (uint) {\r\n        return num;\r\n    }\r\n}\r\n",
  "sourcePath": "D:\\Coding\\Blockchain codeEater\\9.Mini Dapp\\contracts\\SimpleStorage.sol",
  "compiler": {
    "name": "solc",
    "version": "0.5.1+commit.c8a2cb62.Emscripten.clang"
  },
  "schemaVersion": "3.4.16",
  "updatedAt": "2023-11-05T13:10:35.224Z",
  "networkType": "ethereum",
  "devdoc": {
    "methods": {}
  },
  "userdoc": {
    "methods": {}
  }
}